:100000000C942A000C943E000C9434000C943400A0
:100010000C9434000C9434000C9434000C94340090
:100020000C9434000C9434000C9434000C94340080
:100030000C9434000C9434000C9434000C94340070
:100040000C9434000C9434000C9434000C94340060
:100050000C94340011241FBECFE5D8E0DEBFCDBF25
:100060000E9436000C9450000C940000D09A11BAF3
:100070001BBA8BB780648BBF7894FFCF1F920F920F
:100080000FB60F9211248F939F938BB391E0892722
:100090008BBB9F918F910F900FBE0F901F90189563
:0400A000F894FFCF02
:00000001FF
